{
  "_format": "hh-sol-artifact-1",
  "contractName": "AdminBox",
  "sourceName": "contracts/AdminBox.sol",
  "abi": [
    {
      "inputs": [],
      "stateMutability": "nonpayable",
      "type": "constructor"
    },
    {
      "anonymous": false,
      "inputs": [
        {
          "indexed": false,
          "internalType": "uint256",
          "name": "value",
          "type": "uint256"
        }
      ],
      "name": "ValueChanged",
      "type": "event"
    },
    {
      "inputs": [
        {
          "internalType": "address",
          "name": "admin",
          "type": "address"
        }
      ],
      "name": "initialize",
      "outputs": [],
      "stateMutability": "nonpayable",
      "type": "function"
    },
    {
      "inputs": [],
      "name": "retrieve",
      "outputs": [
        {
          "internalType": "uint256",
          "name": "",
          "type": "uint256"
        }
      ],
      "stateMutability": "view",
      "type": "function"
    },
    {
      "inputs": [
        {
          "internalType": "uint256",
          "name": "value",
          "type": "uint256"
        }
      ],
      "name": "store",
      "outputs": [],
      "stateMutability": "nonpayable",
      "type": "function"
    }
  ],
  "bytecode": "0x608060405234801561001057600080fd5b50600060019054906101000a900460ff166100395760008054906101000a900460ff1615610048565b6100476100fe60201b60201c565b5b610087576040517f08c379a000000000000000000000000000000000000000000000000000000000815260040161007e9061015f565b60405180910390fd5b60008060019054906101000a900460ff1615905080156100d7576001600060016101000a81548160ff02191690831515021790555060016000806101000a81548160ff0219169083151502179055505b80156100f85760008060016101000a81548160ff0219169083151502179055505b506101df565b60006101133061011960201b61029d1760201c565b15905090565b6000808273ffffffffffffffffffffffffffffffffffffffff163b119050919050565b6000610149602e8361017f565b915061015482610190565b604082019050919050565b600060208201905081810360008301526101788161013c565b9050919050565b600082825260208201905092915050565b7f496e697469616c697a61626c653a20636f6e747261637420697320616c72656160008201527f647920696e697469616c697a6564000000000000000000000000000000000000602082015250565b610526806101ee6000396000f3fe608060405234801561001057600080fd5b50600436106100415760003560e01c80632e64cec1146100465780636057361d14610064578063c4d66de814610080575b600080fd5b61004e61009c565b60405161005b91906103e2565b60405180910390f35b61007e60048036038101906100799190610324565b6100a6565b005b61009a600480360381019061009591906102fb565b610177565b005b6000600154905090565b600260009054906101000a900473ffffffffffffffffffffffffffffffffffffffff1673ffffffffffffffffffffffffffffffffffffffff163373ffffffffffffffffffffffffffffffffffffffff1614610136576040517f08c379a000000000000000000000000000000000000000000000000000000000815260040161012d906103c2565b60405180910390fd5b806001819055507f93fe6d397c74fdf1402a8b72e47b68512f0510d7b98a4bc4cbdf6ac7108b3c598160405161016c91906103e2565b60405180910390a150565b600060019054906101000a900460ff1661019f5760008054906101000a900460ff16156101a8565b6101a76102c0565b5b6101e7576040517f08c379a00000000000000000000000000000000000000000000000000000000081526004016101de906103a2565b60405180910390fd5b60008060019054906101000a900460ff161590508015610237576001600060016101000a81548160ff02191690831515021790555060016000806101000a81548160ff0219169083151502179055505b81600260006101000a81548173ffffffffffffffffffffffffffffffffffffffff021916908373ffffffffffffffffffffffffffffffffffffffff16021790555080156102995760008060016101000a81548160ff0219169083151502179055505b5050565b6000808273ffffffffffffffffffffffffffffffffffffffff163b119050919050565b60006102cb3061029d565b15905090565b6000813590506102e0816104c2565b92915050565b6000813590506102f5816104d9565b92915050565b60006020828403121561030d57600080fd5b600061031b848285016102d1565b91505092915050565b60006020828403121561033657600080fd5b6000610344848285016102e6565b91505092915050565b600061035a602e836103fd565b91506103658261044a565b604082019050919050565b600061037d6013836103fd565b915061038882610499565b602082019050919050565b61039c81610440565b82525050565b600060208201905081810360008301526103bb8161034d565b9050919050565b600060208201905081810360008301526103db81610370565b9050919050565b60006020820190506103f76000830184610393565b92915050565b600082825260208201905092915050565b600061041982610420565b9050919050565b600073ffffffffffffffffffffffffffffffffffffffff82169050919050565b6000819050919050565b7f496e697469616c697a61626c653a20636f6e747261637420697320616c72656160008201527f647920696e697469616c697a6564000000000000000000000000000000000000602082015250565b7f41646d696e426f783a206e6f742061646d696e00000000000000000000000000600082015250565b6104cb8161040e565b81146104d657600080fd5b50565b6104e281610440565b81146104ed57600080fd5b5056fea2646970667358221220385f50cabe541aaa7c1d5d1c6bdf5bb2ad194fbef9a121ad9aab07e3d112d58d64736f6c63430008030033",
  "linkReferences": {},
  "deployedLinkReferences": {}
}